:100000000C9434000C9449000C9449000C94490061
:100010000C9449000C9449000C9449000C9449003C
:100020000C9449000C9449000C9449000C9449002C
:100030000C9449000C9449000C9449000C9449001C
:100040000C9449000C9449000C9449000C9449000C
:100050000C9449000C9449000C9449000C944900FC
:100060000C9449000C94490011241FBECFEFD8E036
:10007000DEBFCDBF11E0A0E0B1E0E2E1F1E002C0FF
:1000800005900D92AC30B107D9F70E9480000C9416
:1000900087000C9400001092C50087E68093C4008E
:1000A000E2ECF0E0808186608083E1ECF0E080812A
:1000B000886180830895E0ECF0E0908195FFFDCFAA
:1000C0008093C60008950F931F93CF93DF93FC0195
:1000D00001900020E9F73197E81BF90B1E161F0667
:1000E00054F4EC018C010E0F1F1F89910E945B00DC
:1000F000C017D107D1F7DF91CF911F910F910895CC
:100100000E944B0080E091E00E946300FBCFF894D6
:02011000FFCF1F
:0C01120048656C6C6F20776F726C6400A5
:00000001FF
