:100000000C9434000C943E000C943E000C943E0082
:100010000C943E000C943E000C943E000C943E0068
:100020000C943E000C943E000C943E000C943E0058
:100030000C943E000C943E000C943E000C943E0048
:100040000C943E000C943E000C943E000C943E0038
:100050000C943E000C943E000C943E000C943E0028
:100060000C943E000C943E0011241FBECFEFD8E04C
:10007000DEBFCDBF0E9458000C945F000C940000BE
:10008000259A08952D9A2FEF83ED90E3215080401B
:100090009040E1F700C0000008952D982FEF83ED08
:1000A00090E3215080409040E1F700C000000895A7
:1000B0000E9440000E9442000E944D00FBCFF89435
:0200C000FFCF70
:00000001FF
