S01600006C656420616E64207377697463682E73726563D4
S11300000C9434000C943E000C943E000C943E007E
S11300100C943E000C943E000C943E000C943E0064
S11300200C943E000C943E000C943E000C943E0054
S11300300C943E000C943E000C943E000C943E0044
S11300400C943E000C943E000C943E000C943E0034
S11300500C943E000C943E000C943E000C943E0024
S11300600C943E000C943E0011241FBECFEFD8E048
S1130070DEBFCDBF0E944D000C945A000C940000CA
S1130080259A08952D9A2FEF83ED90E32150804017
S11300909040E1F700C0000008950E9440000E94D3
S11300A056000E9458000E944200FDCF20980895F7
S10B00B0289A0895F894FFCF8B
S9030000FC
